{
	"contract/FirstApp.sol": {
		"FirstApp": {
			"abi": [
				{
					"inputs": [],
					"name": "count",
					"outputs": [
						{
							"internalType": "int256",
							"name": "",
							"type": "int256"
						}
					],
					"stateMutability": "view",
					"type": "function"
				},
				{
					"inputs": [],
					"name": "decement",
					"outputs": [],
					"stateMutability": "nonpayable",
					"type": "function"
				},
				{
					"inputs": [],
					"name": "get",
					"outputs": [
						{
							"internalType": "int256",
							"name": "",
							"type": "int256"
						}
					],
					"stateMutability": "view",
					"type": "function"
				},
				{
					"inputs": [],
					"name": "increment",
					"outputs": [],
					"stateMutability": "nonpayable",
					"type": "function"
				}
			],
			"devdoc": {
				"kind": "dev",
				"methods": {},
				"version": 1
			},
			"evm": {
				"assembly": "    /* \"contract/FirstApp.sol\":58:475  contract FirstApp{... */\n  mstore(0x40, 0x80)\n  callvalue\n  dup1\n  iszero\n  tag_1\n  jumpi\n  0x00\n  dup1\n  revert\ntag_1:\n  pop\n  dataSize(sub_0)\n  dup1\n  dataOffset(sub_0)\n  0x00\n  codecopy\n  0x00\n  return\nstop\n\nsub_0: assembly {\n        /* \"contract/FirstApp.sol\":58:475  contract FirstApp{... */\n      mstore(0x40, 0x80)\n      callvalue\n      dup1\n      iszero\n      tag_1\n      jumpi\n      0x00\n      dup1\n      revert\n    tag_1:\n      pop\n      jumpi(tag_2, lt(calldatasize, 0x04))\n      shr(0xe0, calldataload(0x00))\n      dup1\n      0x06661abd\n      eq\n      tag_3\n      jumpi\n      dup1\n      0x09b4a7db\n      eq\n      tag_4\n      jumpi\n      dup1\n      0x6d4ce63c\n      eq\n      tag_5\n      jumpi\n      dup1\n      0xd09de08a\n      eq\n      tag_6\n      jumpi\n    tag_2:\n      0x00\n      dup1\n      revert\n        /* \"contract/FirstApp.sol\":133:152  int256 public count */\n    tag_3:\n      tag_7\n      tag_8\n      jump\t// in\n    tag_7:\n      mload(0x40)\n      tag_9\n      swap2\n      swap1\n      tag_10\n      jump\t// in\n    tag_9:\n      mload(0x40)\n      dup1\n      swap2\n      sub\n      swap1\n      return\n        /* \"contract/FirstApp.sol\":413:467  function decement() public {... */\n    tag_4:\n      tag_11\n      tag_12\n      jump\t// in\n    tag_11:\n      stop\n        /* \"contract/FirstApp.sol\":225:296  function get() public view returns(int256){... */\n    tag_5:\n      tag_13\n      tag_14\n      jump\t// in\n    tag_13:\n      mload(0x40)\n      tag_15\n      swap2\n      swap1\n      tag_10\n      jump\t// in\n    tag_15:\n      mload(0x40)\n      dup1\n      swap2\n      sub\n      swap1\n      return\n        /* \"contract/FirstApp.sol\":327:382  function increment() public {... */\n    tag_6:\n      tag_16\n      tag_17\n      jump\t// in\n    tag_16:\n      stop\n        /* \"contract/FirstApp.sol\":133:152  int256 public count */\n    tag_8:\n      sload(0x00)\n      dup2\n      jump\t// out\n        /* \"contract/FirstApp.sol\":413:467  function decement() public {... */\n    tag_12:\n        /* \"contract/FirstApp.sol\":459:460  1 */\n      0x01\n        /* \"contract/FirstApp.sol\":450:455  count */\n      0x00\n      dup1\n        /* \"contract/FirstApp.sol\":450:460  count -= 1 */\n      dup3\n      dup3\n      sload\n      tag_19\n      swap2\n      swap1\n      tag_20\n      jump\t// in\n    tag_19:\n      swap3\n      pop\n      pop\n      dup2\n      swap1\n      sstore\n      pop\n        /* \"contract/FirstApp.sol\":413:467  function decement() public {... */\n      jump\t// out\n        /* \"contract/FirstApp.sol\":225:296  function get() public view returns(int256){... */\n    tag_14:\n        /* \"contract/FirstApp.sol\":260:266  int256 */\n      0x00\n        /* \"contract/FirstApp.sol\":284:289  count */\n      dup1\n      sload\n        /* \"contract/FirstApp.sol\":277:289  return count */\n      swap1\n      pop\n        /* \"contract/FirstApp.sol\":225:296  function get() public view returns(int256){... */\n      swap1\n      jump\t// out\n        /* \"contract/FirstApp.sol\":327:382  function increment() public {... */\n    tag_17:\n        /* \"contract/FirstApp.sol\":374:375  1 */\n      0x01\n        /* \"contract/FirstApp.sol\":365:370  count */\n      0x00\n      dup1\n        /* \"contract/FirstApp.sol\":365:375  count += 1 */\n      dup3\n      dup3\n      sload\n      tag_23\n      swap2\n      swap1\n      tag_24\n      jump\t// in\n    tag_23:\n      swap3\n      pop\n      pop\n      dup2\n      swap1\n      sstore\n      pop\n        /* \"contract/FirstApp.sol\":327:382  function increment() public {... */\n      jump\t// out\n        /* \"#utility.yul\":7:83   */\n    tag_25:\n        /* \"#utility.yul\":43:50   */\n      0x00\n        /* \"#utility.yul\":72:77   */\n      dup2\n        /* \"#utility.yul\":61:77   */\n      swap1\n      pop\n        /* \"#utility.yul\":7:83   */\n      swap2\n      swap1\n      pop\n      jump\t// out\n        /* \"#utility.yul\":89:204   */\n    tag_26:\n        /* \"#utility.yul\":174:197   */\n      tag_31\n        /* \"#utility.yul\":191:196   */\n      dup2\n        /* \"#utility.yul\":174:197   */\n      tag_25\n      jump\t// in\n    tag_31:\n        /* \"#utility.yul\":169:172   */\n      dup3\n        /* \"#utility.yul\":162:198   */\n      mstore\n        /* \"#utility.yul\":89:204   */\n      pop\n      pop\n      jump\t// out\n        /* \"#utility.yul\":210:428   */\n    tag_10:\n        /* \"#utility.yul\":301:305   */\n      0x00\n        /* \"#utility.yul\":339:341   */\n      0x20\n        /* \"#utility.yul\":328:337   */\n      dup3\n        /* \"#utility.yul\":324:342   */\n      add\n        /* \"#utility.yul\":316:342   */\n      swap1\n      pop\n        /* \"#utility.yul\":352:421   */\n      tag_33\n        /* \"#utility.yul\":418:419   */\n      0x00\n        /* \"#utility.yul\":407:416   */\n      dup4\n        /* \"#utility.yul\":403:420   */\n      add\n        /* \"#utility.yul\":394:400   */\n      dup5\n        /* \"#utility.yul\":352:421   */\n      tag_26\n      jump\t// in\n    tag_33:\n        /* \"#utility.yul\":210:428   */\n      swap3\n      swap2\n      pop\n      pop\n      jump\t// out\n        /* \"#utility.yul\":434:614   */\n    tag_27:\n        /* \"#utility.yul\":482:559   */\n      0x4e487b7100000000000000000000000000000000000000000000000000000000\n        /* \"#utility.yul\":479:480   */\n      0x00\n        /* \"#utility.yul\":472:560   */\n      mstore\n        /* \"#utility.yul\":579:583   */\n      0x11\n        /* \"#utility.yul\":576:577   */\n      0x04\n        /* \"#utility.yul\":569:584   */\n      mstore\n        /* \"#utility.yul\":603:607   */\n      0x24\n        /* \"#utility.yul\":600:601   */\n      0x00\n        /* \"#utility.yul\":593:608   */\n      revert\n        /* \"#utility.yul\":620:992   */\n    tag_20:\n        /* \"#utility.yul\":659:663   */\n      0x00\n        /* \"#utility.yul\":679:698   */\n      tag_36\n        /* \"#utility.yul\":696:697   */\n      dup3\n        /* \"#utility.yul\":679:698   */\n      tag_25\n      jump\t// in\n    tag_36:\n        /* \"#utility.yul\":674:698   */\n      swap2\n      pop\n        /* \"#utility.yul\":712:731   */\n      tag_37\n        /* \"#utility.yul\":729:730   */\n      dup4\n        /* \"#utility.yul\":712:731   */\n      tag_25\n      jump\t// in\n    tag_37:\n        /* \"#utility.yul\":707:731   */\n      swap3\n      pop\n        /* \"#utility.yul\":755:756   */\n      dup3\n        /* \"#utility.yul\":752:753   */\n      dup3\n        /* \"#utility.yul\":748:757   */\n      sub\n        /* \"#utility.yul\":740:757   */\n      swap1\n      pop\n        /* \"#utility.yul\":949:950   */\n      dup2\n        /* \"#utility.yul\":943:947   */\n      dup2\n        /* \"#utility.yul\":939:951   */\n      slt\n        /* \"#utility.yul\":935:936   */\n      0x00\n        /* \"#utility.yul\":932:933   */\n      dup5\n        /* \"#utility.yul\":928:937   */\n      slt\n        /* \"#utility.yul\":924:952   */\n      and\n        /* \"#utility.yul\":907:908   */\n      dup3\n        /* \"#utility.yul\":901:905   */\n      dup3\n        /* \"#utility.yul\":897:909   */\n      sgt\n        /* \"#utility.yul\":892:893   */\n      0x00\n        /* \"#utility.yul\":889:890   */\n      dup6\n        /* \"#utility.yul\":885:894   */\n      slt\n        /* \"#utility.yul\":878:895   */\n      iszero\n        /* \"#utility.yul\":874:910   */\n      and\n        /* \"#utility.yul\":858:962   */\n      or\n        /* \"#utility.yul\":855:985   */\n      iszero\n      tag_38\n      jumpi\n        /* \"#utility.yul\":965:983   */\n      tag_39\n      tag_27\n      jump\t// in\n    tag_39:\n        /* \"#utility.yul\":855:985   */\n    tag_38:\n        /* \"#utility.yul\":620:992   */\n      swap3\n      swap2\n      pop\n      pop\n      jump\t// out\n        /* \"#utility.yul\":998:1373   */\n    tag_24:\n        /* \"#utility.yul\":1037:1040   */\n      0x00\n        /* \"#utility.yul\":1056:1075   */\n      tag_41\n        /* \"#utility.yul\":1073:1074   */\n      dup3\n        /* \"#utility.yul\":1056:1075   */\n      tag_25\n      jump\t// in\n    tag_41:\n        /* \"#utility.yul\":1051:1075   */\n      swap2\n      pop\n        /* \"#utility.yul\":1089:1108   */\n      tag_42\n        /* \"#utility.yul\":1106:1107   */\n      dup4\n        /* \"#utility.yul\":1089:1108   */\n      tag_25\n      jump\t// in\n    tag_42:\n        /* \"#utility.yul\":1084:1108   */\n      swap3\n      pop\n        /* \"#utility.yul\":1131:1132   */\n      dup3\n        /* \"#utility.yul\":1128:1129   */\n      dup3\n        /* \"#utility.yul\":1124:1133   */\n      add\n        /* \"#utility.yul\":1117:1133   */\n      swap1\n      pop\n        /* \"#utility.yul\":1329:1330   */\n      dup3\n        /* \"#utility.yul\":1324:1327   */\n      dup2\n        /* \"#utility.yul\":1320:1331   */\n      slt\n        /* \"#utility.yul\":1313:1332   */\n      iszero\n        /* \"#utility.yul\":1309:1310   */\n      0x00\n        /* \"#utility.yul\":1306:1307   */\n      dup4\n        /* \"#utility.yul\":1302:1311   */\n      slt\n        /* \"#utility.yul\":1298:1333   */\n      and\n        /* \"#utility.yul\":1281:1282   */\n      dup4\n        /* \"#utility.yul\":1276:1279   */\n      dup3\n        /* \"#utility.yul\":1272:1283   */\n      slt\n        /* \"#utility.yul\":1267:1268   */\n      0x00\n        /* \"#utility.yul\":1264:1265   */\n      dup5\n        /* \"#utility.yul\":1260:1269   */\n      slt\n        /* \"#utility.yul\":1253:1270   */\n      iszero\n        /* \"#utility.yul\":1249:1284   */\n      and\n        /* \"#utility.yul\":1233:1343   */\n      or\n        /* \"#utility.yul\":1230:1366   */\n      iszero\n      tag_43\n      jumpi\n        /* \"#utility.yul\":1346:1364   */\n      tag_44\n      tag_27\n      jump\t// in\n    tag_44:\n        /* \"#utility.yul\":1230:1366   */\n    tag_43:\n        /* \"#utility.yul\":998:1373   */\n      swap3\n      swap2\n      pop\n      pop\n      jump\t// out\n\n    auxdata: 0xa26469706673582212205d4123b84f80b3d2096f5283e15e81e4a5f3d325f3da746dd6dcf3314a82c98864736f6c63430008160033\n}\n",
				"bytecode": {
					"linkReferences": {},
					"object": "608060405234801561000f575f80fd5b506101f48061001d5f395ff3fe608060405234801561000f575f80fd5b506004361061004a575f3560e01c806306661abd1461004e57806309b4a7db1461006c5780636d4ce63c14610076578063d09de08a14610094575b5f80fd5b61005661009e565b60405161006391906100f7565b60405180910390f35b6100746100a3565b005b61007e6100bd565b60405161008b91906100f7565b60405180910390f35b61009c6100c5565b005b5f5481565b60015f808282546100b4919061013d565b92505081905550565b5f8054905090565b60015f808282546100d6919061017d565b92505081905550565b5f819050919050565b6100f1816100df565b82525050565b5f60208201905061010a5f8301846100e8565b92915050565b7f4e487b71000000000000000000000000000000000000000000000000000000005f52601160045260245ffd5b5f610147826100df565b9150610152836100df565b925082820390508181125f8412168282135f85121516171561017757610176610110565b5b92915050565b5f610187826100df565b9150610192836100df565b92508282019050828112155f8312168382125f8412151617156101b8576101b7610110565b5b9291505056fea26469706673582212205d4123b84f80b3d2096f5283e15e81e4a5f3d325f3da746dd6dcf3314a82c98864736f6c63430008160033",
					"opcodes": "PUSH1 0x80 PUSH1 0x40 MSTORE CALLVALUE DUP1 ISZERO PUSH2 0xF JUMPI PUSH0 DUP1 REVERT JUMPDEST POP PUSH2 0x1F4 DUP1 PUSH2 0x1D PUSH0 CODECOPY PUSH0 RETURN INVALID PUSH1 0x80 PUSH1 0x40 MSTORE CALLVALUE DUP1 ISZERO PUSH2 0xF JUMPI PUSH0 DUP1 REVERT JUMPDEST POP PUSH1 0x4 CALLDATASIZE LT PUSH2 0x4A JUMPI PUSH0 CALLDATALOAD PUSH1 0xE0 SHR DUP1 PUSH4 0x6661ABD EQ PUSH2 0x4E JUMPI DUP1 PUSH4 0x9B4A7DB EQ PUSH2 0x6C JUMPI DUP1 PUSH4 0x6D4CE63C EQ PUSH2 0x76 JUMPI DUP1 PUSH4 0xD09DE08A EQ PUSH2 0x94 JUMPI JUMPDEST PUSH0 DUP1 REVERT JUMPDEST PUSH2 0x56 PUSH2 0x9E JUMP JUMPDEST PUSH1 0x40 MLOAD PUSH2 0x63 SWAP2 SWAP1 PUSH2 0xF7 JUMP JUMPDEST PUSH1 0x40 MLOAD DUP1 SWAP2 SUB SWAP1 RETURN JUMPDEST PUSH2 0x74 PUSH2 0xA3 JUMP JUMPDEST STOP JUMPDEST PUSH2 0x7E PUSH2 0xBD JUMP JUMPDEST PUSH1 0x40 MLOAD PUSH2 0x8B SWAP2 SWAP1 PUSH2 0xF7 JUMP JUMPDEST PUSH1 0x40 MLOAD DUP1 SWAP2 SUB SWAP1 RETURN JUMPDEST PUSH2 0x9C PUSH2 0xC5 JUMP JUMPDEST STOP JUMPDEST PUSH0 SLOAD DUP2 JUMP JUMPDEST PUSH1 0x1 PUSH0 DUP1 DUP3 DUP3 SLOAD PUSH2 0xB4 SWAP2 SWAP1 PUSH2 0x13D JUMP JUMPDEST SWAP3 POP POP DUP2 SWAP1 SSTORE POP JUMP JUMPDEST PUSH0 DUP1 SLOAD SWAP1 POP SWAP1 JUMP JUMPDEST PUSH1 0x1 PUSH0 DUP1 DUP3 DUP3 SLOAD PUSH2 0xD6 SWAP2 SWAP1 PUSH2 0x17D JUMP JUMPDEST SWAP3 POP POP DUP2 SWAP1 SSTORE POP JUMP JUMPDEST PUSH0 DUP2 SWAP1 POP SWAP2 SWAP1 POP JUMP JUMPDEST PUSH2 0xF1 DUP2 PUSH2 0xDF JUMP JUMPDEST DUP3 MSTORE POP POP JUMP JUMPDEST PUSH0 PUSH1 0x20 DUP3 ADD SWAP1 POP PUSH2 0x10A PUSH0 DUP4 ADD DUP5 PUSH2 0xE8 JUMP JUMPDEST SWAP3 SWAP2 POP POP JUMP JUMPDEST PUSH32 0x4E487B7100000000000000000000000000000000000000000000000000000000 PUSH0 MSTORE PUSH1 0x11 PUSH1 0x4 MSTORE PUSH1 0x24 PUSH0 REVERT JUMPDEST PUSH0 PUSH2 0x147 DUP3 PUSH2 0xDF JUMP JUMPDEST SWAP2 POP PUSH2 0x152 DUP4 PUSH2 0xDF JUMP JUMPDEST SWAP3 POP DUP3 DUP3 SUB SWAP1 POP DUP2 DUP2 SLT PUSH0 DUP5 SLT AND DUP3 DUP3 SGT PUSH0 DUP6 SLT ISZERO AND OR ISZERO PUSH2 0x177 JUMPI PUSH2 0x176 PUSH2 0x110 JUMP JUMPDEST JUMPDEST SWAP3 SWAP2 POP POP JUMP JUMPDEST PUSH0 PUSH2 0x187 DUP3 PUSH2 0xDF JUMP JUMPDEST SWAP2 POP PUSH2 0x192 DUP4 PUSH2 0xDF JUMP JUMPDEST SWAP3 POP DUP3 DUP3 ADD SWAP1 POP DUP3 DUP2 SLT ISZERO PUSH0 DUP4 SLT AND DUP4 DUP3 SLT PUSH0 DUP5 SLT ISZERO AND OR ISZERO PUSH2 0x1B8 JUMPI PUSH2 0x1B7 PUSH2 0x110 JUMP JUMPDEST JUMPDEST SWAP3 SWAP2 POP POP JUMP INVALID LOG2 PUSH5 0x6970667358 0x22 SLT KECCAK256 0x5D COINBASE 0x23 0xB8 0x4F DUP1 0xB3 0xD2 MULMOD PUSH16 0x5283E15E81E4A5F3D325F3DA746DD6DC RETURN BALANCE 0x4A DUP3 0xC9 DUP9 PUSH5 0x736F6C6343 STOP ADDMOD AND STOP CALLER "
				},
				"gasEstimates": {
					"creation": {
						"codeDepositCost": "100000",
						"executionCost": "145",
						"totalCost": "100145"
					},
					"external": {
						"count()": "2402",
						"decement()": "infinite",
						"get()": "2454",
						"increment()": "infinite"
					}
				},
				"methodIdentifiers": {
					"count()": "06661abd",
					"decement()": "09b4a7db",
					"get()": "6d4ce63c",
					"increment()": "d09de08a"
				}
			},
			"storageLayout": {
				"storage": [
					{
						"astId": 3,
						"contract": "contract/FirstApp.sol:FirstApp",
						"label": "count",
						"offset": 0,
						"slot": "0",
						"type": "t_int256"
					}
				],
				"types": {
					"t_int256": {
						"encoding": "inplace",
						"label": "int256",
						"numberOfBytes": "32"
					}
				}
			},
			"userdoc": {
				"kind": "user",
				"methods": {},
				"version": 1
			}
		}
	}
}